:020000040800F2
:1000000090060020B5010008BD010008BF010008EE
:10001000C1010008C3010008C5010008000000007C
:10002000000000000000000000000000C701000800
:10003000C901000800000000CB010008CD01000844
:10004000CF010008CF010008CF010008CF01000850
:10005000CF010008CF010008CF010008CF01000840
:10006000CF010008CF010008CF010008CF01000830
:10007000CF010008CF010008CF010008CF01000820
:10008000CF010008CF010008CF010008CF01000810
:10009000CF010008CF010008CF010008CF01000800
:1000A000CF010008CF010008CF010008CF010008F0
:1000B000CF010008CF010008D51D0008CF010008BE
:1000C000CF010008CF010008CF010008CF010008D0
:1000D000CF01000885200008CF010008CF010008EB
:1000E000CF010008CF010008CF01000800F002F89E
:1000F00000F050F814A696E8000CB244B344DA4578
:1001000001D100F047F8BAE80F000FA696E83000DA
:10011000A5EB040504EB0607AAEB0704A7F101070A
:100120004FEA15154FEA3414A4F10104AC4201D38F
:1001300000F030F813F0010F18BFFB1A43F0010371
:1001400000F001F8DBE71847843C0000943C000015
:10015000704700000023002400250026103A28BF25
:1001600078C1FBD8520728BF30C148BF0B60704729
:100170001FB501F08BF804000020002102F000FE02
:10018000401C60600020002102F0E4FDE0601FBD23
:1001900010B510BD01F04DF81146FFF7E9FF02F070
:1001A000EBF801F001F903B4FFF7F2FF03BC01F033
:1001B0007FFB00000948804709480047FEE7FEE74B
:1001C000FEE7FEE7FEE7FEE7FEE7FEE7FEE7FEE707
:1001D00004480549054A064B704700009D1C00086D
:1001E000ED00000890000020900600209002002002
:1001F000900200200FB400B58DB010A909900091B5
:100200000B904FF0FF300A9000200C900648784485
:100210000690064878446A4607900F9909A800F0AE
:10022000D1F90DB05DF814FBD3030000EB0300001F
:100230007047704770472DE9FF4F1C4691464FF0BD
:10024000FF3581B000218A468846D4E90167A1695B
:1002500002986D1C8847216A834688470028F6D19A
:10026000BBF1FF3F0CD0002F26F4C0661ADD7006EC
:1002700015D5BBF12B0F0AD0BBF12D0F0FD104E028
:100280004FF0FF3005B0BDE8F08F46F48066A169FD
:1002900002986D1C88477F1E8346002F02DDBBF14C
:1002A000300F03D0B9F1000F2AD025E0A1696D1CF1
:1002B00002987F1E46F400768847002F834605DDAE
:1002C000BBF1780F06D0BBF1580F03D0B9F1000F86
:1002D00010D011E0B9F1000F02D0B9F1100F0BD11D
:1002E000A1696D1C02987F1E26F40076884783461C
:1002F000102000E0082081464FEAE970009017E0E6
:100300000A20F8E74346AAFB0928DDF800C07F1E53
:1003100003FB098046F4007605F101050AFB0C0198
:1003200012EB0B0A029841EBEB78A16988478346F0
:10033000002F06DD4946584600F0E3FA5FEA000B5D
:10034000E0D5E16902988847B00502D46FF001005A
:1003500098E7F00718D1700610D55146700505D5FD
:100360000023D1EB030163EB080200E04246206862
:10037000031D23600068C0E9001205E02068011D2C
:1003800021600068C0E900A828467BE72DE9FF5FEF
:100390001D464FF0FF3B91464FF000085F46D5E900
:1003A0000146A96901987F1C8847296A82468847C7
:1003B0000028F6D1BAF1FF3F0CD0002E24F4C0641F
:1003C00019DD600614D5BAF12B0F09D0BAF12D0F43
:1003D0000ED103E0584604B0BDE8F09F44F48064B9
:1003E000A96901987F1C8847761E8246002E02DD8F
:1003F000BAF1300F03D0B9F1000F26D032E0A9696D
:10040000761E01987F1C44F400748847002E8246B3
:1004100005DDBAF1780F06D0BAF1580F03D0B9F163
:10042000000F10D01EE0B9F1000F02D0B9F1100F8B
:1004300018D1A969761E01987F1C24F4007488479E
:100440008246102002E0082000E00A20814609E0F0
:10045000A96908FB0908761E01987F1C44F4007402
:1004600088478246002E05DD4946504600F049FA8D
:100470000028EDDAE96901988847A00502D46FF0F9
:100480000100A8E7E00725D1600613D5600502D575
:10049000C8F1000000E0404629680A1D2A6009688A
:1004A000220501D5087015E0220701D5088011E06A
:1004B00008600FE02868011D29600068210502D549
:1004C00080F8008006E0210702D5A0F8008001E056
:1004D000C0F8008038467EE72DE9FF5F4FF0000846
:1004E0009946144646469169D2E901A7DDF838B02D
:1004F00001988847054659EA0B0005D009E0A16933
:100500000198761C88470546216A284688470028B6
:10051000F5D1681C03D05FEACA7005D015E04FF032
:10052000FF3004B0BDE8F09F2068011D2160D0F8C5
:1005300000800AE05FEACA7001D108F8015BA16996
:10054000761C01987F1E88470546002F1ADD681C1F
:1005500018D0B9F1000F0DD0E81705EBD0604211AB
:1005600020F01F0059F822102A1A01209040014261
:10057000E0D107E0BBF1000FDCD12846216A8847B3
:100580000028D7D0E16901988847BBF1000F07D157
:10059000002E05DD5FEACA7002D1002188F8001044
:1005A000A068B84203DDBBF1000F03D017B16FF0B4
:1005B0000100B6E73046B4E70268114413780160E1
:1005C00018467047D160054979445161044979441E
:1005D000116200211161114600F0A2B9EDFFFFFF89
:1005E0001F030000426842B1016811F8013B23B1CA
:1005F000521EC0E90012184670470121C160881ED2
:10060000704742685AB1C368016843B983688B4236
:1006100005D0491E521CC0E90012002070474FF05F
:10062000FF3070472DE9FF4F4FF000089A461446FF
:10063000C146464683B0D2E901B7CDF80080CDF877
:100640000480916904988847109905465AEA010088
:1006500005D009E0A1690498761C88470546216AFF
:10066000284688470028F5D1681C03D05FEACB7084
:1006700005D02AE04FF0FF3007B0BDE8F08F2068CA
:10068000011D2160D0F800801FE002A86A46E9B28F
:1006900000F08BFD411C07D0801C09D04FF00009F1
:1006A0005FEACB7007D00AE0E169049888473EE032
:1006B0004FF0010904E0BDF8081028F8021B7F1E66
:1006C000A1690498761C88470546002F1ADD681C2E
:1006D00018D0BAF1000F0DD0E81705EBD060421129
:1006E00020F01F005AF822102A1A012090400142DF
:1006F000CBD107E010980028C7D12846216A884747
:100700000028C2D0E16904988847B9F1000F0ED1E2
:10071000109830B9002E04DD5FEACB7001D1A8F843
:100720000000A068B84202DD109818B117B16FF050
:100730000100A1E730469FE72DE9FF4F4FF0000889
:100740009B461446454683B0D2E90196CDF8008019
:10075000CDF804809169DDF848A0049888470746E1
:100760005BEA0A0005D009E0A16904986D1C88477E
:100770000746216A384688470028F5D1781C03D0FF
:100780005FEAC97005D01BE04FF0FF3007B0BDE84D
:10079000F08F2068011D2160D0F8008010E05FEA32
:1007A000C97007D16A464046B9B200F01EFD411C2F
:1007B00031D08044A1696D1C0498761E8847074695
:1007C000002E14DD781C12D0BBF1000007D03B4690
:1007D000DDE9101200F0DAFC0028E0D107E0BAF100
:1007E000000FDCD13846216A88470028D7D0E1695C
:1007F00004988847BAF1000F06D1002D04DD5FEAA6
:10080000C97001D188F80000A068B04203DDBAF1D8
:10081000000F03D016B16FF00100B7E72846B5E727
:100820002DE9FF5F9B46144600273D469169D2E9BA
:100830000196DDF840A00198884780465BEA0A00EF
:1008400005D009E0A16901986D1C88478046216A9E
:10085000404688470028F5D1B8F1FF3F03D05FEA52
:10086000C97005D014E04FF0FF3004B0BDE8F09F30
:100870002068011D216007680AE05FEAC97001D1A4
:1008800027F8028BA1696D1C0198761E8847804667
:10089000002E15DDB8F1FF3F12D0BBF1000007D0EC
:1008A0004346DDE90E1200F071FC0028E5D107E0B7
:1008B000BAF1000FE1D14046216A88470028DCD018
:1008C000E16901988847BAF1000F05D1002D03DDD9
:1008D0005FEAC97000D13880A068B04203DDBAF188
:1008E000000F03D016B16FF00100BEE72846BCE749
:1008F00010B5044600F0C2FC0068005D00F0010085
:1009000010BD3A2800D2303820F02002412A01D30D
:10091000A2F13700884201D34FF0FF30704700004A
:100920002DE9F34F4FF0000A0C4656468DB00120DA
:100930000C9001F10C000B9062690B98012190471B
:10094000051E2DD0252D2CD0216A8847C0B16269A3
:100950000B9801219047216A88470028F7D16269E6
:10096000411E0B98904700E0761CA1690D988847BE
:10097000216A88470028F7D1E1690D988847DBE7AD
:10098000A1690D988847A842074601D1761CD3E794
:10099000E1690D9888477F1C02D1BAF1000F6FD032
:1009A0006BE162690B9800273D46394690472A283B
:1009B00004D162690B98012190470125DFF8D082AC
:1009C00062690B9801219047A0F130010A290AD2EF
:1009D0004745E5DC07EB870100EB4107303FDFD4FB
:1009E00045F01005ECE7E90601D46FF000476C28EC
:1009F0000AD04C2814D0682815D06A280DD0742845
:100A00001CD07A281AD01DE062690B98012190470A
:100A10006C2802D045F0040514E045F002050DE015
:100A200045F020050AE062690B980121904768288B
:100A300002D045F0080505E045F4006562690B98B1
:100A400001219047C4E9015765283DD019DC582899
:100A50007AD00CDC452837D004DC252826D0412864
:100A60009ED131E046282FD0472899D12CE05B2831
:100A700077D0612828D063287CD0642823D15AE01D
:100A8000F6E06F2848D008DC66281DD067281BD008
:100A9000692821D06E2816D127E0702845D0732808
:100AA00068D0752847D078280DD14DE0A1690D9800
:100AB0008847252805463FF469AFE1690D988847C6
:100AC0006D1C3FF46AAFD8E00D9923466A466FF07B
:100AD000010003F0E8F8C5E045F0400023464FF080
:100AE00000026060A80736D43EE0E8077FF447AF15
:100AF0002068011D21600068290501D506701BE7EB
:100B0000290701D5068017E7A90703D5F117C0E922
:100B1000006111E706600FE745F0400023464FF003
:100B200008026060A80716D41EE040F60E0125EA10
:100B30000100606016E045F0400023464FF00A02D5
:100B40006060A80707D40FE045F040006060A80788
:100B500008D5234610220D996FF00100FFF76BFBBB
:100B600080E007E0102223460D996FF00100FFF7A7
:100B70000DFC77E04FF0000963284F46C8464B460E
:100B8000CB4602D05B2806D038E0E80601D401202D
:100B9000A060012732E06269D4F80CB00B98012103
:100BA00090475E2807D14FF0010949466269D4F8A1
:100BB0000CB00B989047216939B900210A4603AB64
:100BC00043F82120491C0829FADBD8B3216949B32D
:100BD00008F1010862690B98012190475D28F4D162
:100BE000B9F1000F09D0002003A951F82020D24309
:100BF00041F82020401C0828F7DB03AB20690028BF
:100C000020794FEA40701ED05B462246CDF8008026
:100C1000CDE901970D9900286FF0010020DAFFF768
:100C2000FFFD1FE0C11703AA00EBD1614B1121F0BA
:100C30001F0102EB8302411A13680120884003431D
:100C40001360C7E719E00D99224600286FF00100F4
:100C5000009702DAFFF7E6FC04E0FFF73DFC01E055
:100C6000FFF76AFD00280ADA401C06D10C9820B173
:100C70004FF0FF300FB0BDE8F08F5046FAE7E907BC
:100C800001D10AF1010A064400200C9054E600004C
:100C9000CCCCCC0C2DE9FF4F06468BB00878FF2852
:100CA00006D0491C2D2805D000244FF0000908E08B
:100CB00000200CE00124F8E709EB8903491C00EB54
:100CC00043090878FF28F7D114B1C9F10000814623
:100CD000107800252C46AA4629462D2801D02B281D
:100CE00004D1521C2D2813D0002082468B46107848
:100CF000FF280FD04FF0000C0A21521CA5FB0178F1
:100D000004FB018105FB0C11C5194BEB0104EEE757
:100D10000120EAE7002108464FF00000BAF1000F79
:100D200002D000EB80004008C0F38157012F01DDA5
:100D30004FF0FF370E9955EA040009EB01080BD07C
:100D40004FF0020918F5FA7F16DA4FEACA70002F41
:100D5000706008DD012007E04FEACA70C6E900B004
:100D60000FB0BDE8F08F0020306000F093FAC0F8BB
:100D700000901821084616E0B8F5FA7F18DD002F1C
:100D800002DAF748784401E0F6487844D0E90010E8
:100D9000C6E9001040EACA70706000F07BFAC0F843
:100DA0000090142108460FB0BDE8F04F02F018BFC4
:100DB000002108464FF00000B8F10001099002DA66
:100DC000C7F1000200E03A4601DAC8F1000106A8C6
:100DD00000F078FA06AB93E8070003AB83E807005E
:100DE00044F23E005BEA04010090584604D144F20C
:100DF0001E012C465D460091210C0904014306D1D9
:100E00000099240444EA15442D041039009104F09B
:100E10007F41014306D10099240244EA15642D0262
:100E20000839009104F07041014306D10099240172
:100E300044EA15742D01091F009104F0404101435B
:100E400006D10099A40044EA9574AD00891E009172
:100E500004F00041084304D100986D196441401E1C
:100E600000904FF001033A466846B8F1000FCDE913
:100E7000014503A902DD01F048FD01E001F01BFD81
:100E8000BAF1000F04460D4601D084F00044002161
:100E900008464FF00000099940F2FF77484010F0F3
:100EA0000C0F07D124F00040284303D0C4F30A50AC
:100EB000B84212D100F0EEF9C0F80090C4F30A5025
:100EC000B8420AD1A8487844D0E90010C6E9001019
:100ED00004F000410843706042E7C6E900543FE770
:100EE0002DE9FF4F1F464FF0000A4FF0FF384546EF
:100EF00091B0D7E90146CDF83CA000F0C7F9C06831
:100F00000168405C1090B96912986D1C8847396A75
:100F1000814688470028F6D1B9F1FF3F0AD0002E5C
:100F200024F4D06411DDB9F12B0F08D0B9F12D0FE5
:100F30000BD102E0404615B013E744F48064B96970
:100F400012986D1C8847761E8146600504A901D55C
:100F50002D2000E02B20002E01F1010B0DF13008B7
:100F60008DF810003FDDB9F1690F08D0B9F1490FD4
:100F700005D0B9F16E0F02D0B9F14E0F1CD13B462E
:100F800001A8009580E85002DDE912126FF002001E
:100F900002F08DFEC11CCED10EE0B96912986D1C15
:100FA000884781461398761E44F4007405600F98B4
:100FB000401C002E0F9016DDB9F1300FEDD0B9F1C5
:100FC000780F02D0B9F1580F0DD10F9801280AD12E
:100FD0003B46CDE90054DDE91212001F029602F0F3
:100FE00064FEC11CA7D1109989453ED144F080040C
:100FF00006E01399681CAAF1010A44F40074086021
:10100000B9696D1C1298761E884730288146F0D049
:101010002BE01099894505D1200603D4761E44F0B3
:10102000800418E0484601F028FE08B3761E0DF152
:1010300023029345A9F1300044F4007406D20BF862
:10104000010B200607D5AAF1010003E0200602D417
:101050000AF101008246A00502D51399681C0860B8
:10106000B96912986D1C88478146002ED1DC53E087
:10107000002E51DDB9F1650F02D0B9F1450F4BD10A
:10108000A00549D5B9696D1C1298761E24F44074E8
:101090008847002E81460CDD2B2804D0B9F12D0F96
:1010A00007D144F48074B96912986D1C8847761E84
:1010B0008146E00501D52D2100E02B2108F8011B18
:1010C000CDF8008021E0761E0DF13901884544F409
:1010D00000740CD2A9F1300010F0FF0088F8000075
:1010E00002D10099884509D908F1010806E0E00518
:1010F00001D51E4801E042F20F708246B96912988C
:101100006D1C8847814613980560002E04DD484613
:1011100001F0B3FD0028D6D1F96912988847FF2065
:1011200053468BF8000088F8000000200A900B90CE
:1011300004AA0CA90AA8FFF7ADFDA00502D46FF020
:101140000100F8E614F0240F12D0E0071CD1386833
:10115000DDE90A12031D3B600068C0E9001213E0DC
:101160005C3000004E300000122F0000F1D8FFFF6D
:101170000AA9684601F010FDE00705D13868009A19
:10118000011D3960006802602846D4E610B508E009
:1011900030F8024B9C4204D10AB1002010BD01205E
:1011A00010BD491EF4D2104610BDF8B516460C46C7
:1011B000054600F063F8036893F80101012804D0A4
:1011C000185D78B101202C80F8BDD3F803013246B8
:1011D000214603F20313C71868460023B847009955
:1011E0002980F8BD4FF0FF30F8BD2DE9F0411646DB
:1011F0000C46054600F042F8036893F80101012807
:1012000007D0FF2C12D8185D80B101202C70BDE8EA
:10121000F081D3F807013246214603F20713C718BD
:101220002846BC46BDE8F041002360474FF0FF3040
:10123000EDE7754600F0C2F8AE4605006946534634
:1012400020F00700854618B020B5FEF7C1FFBDE8C5
:1012500020404FF000064FF000074FF000084FF01D
:10126000000BAC46ACE8C009ACE8C009ACE8C0096A
:10127000ACE8C00921F007018D46704710B500F0B9
:1012800005F8001D10BD00BFF91A000000487047A6
:10129000200000200048704700000020B2F1200329
:1012A0000AD5C2F1200301FA02F120FA03F341EA60
:1012B000030100FA02F0704700FA03F14FF000005A
:1012C000704700002DE9F047814616468AB0354840
:1012D00078440DC88DE80D0032487844801C03AC7A
:1012E0000DC884E80D0041F69B300844372190FB7F
:1012F000F1F290FBF1F5A5F1800501FB12041B3C16
:1013000002D56442012000E00020DFF898A080466A
:101310000027FA44AAF1BE0A0EE0E0070AD03246DE
:10132000684607EB470101230AEB810101F0D8FA77
:101330008DE8070064107F1C002CEED1194F7F440C
:10134000AE3F19E0E80715D007EB04100DF1180ABD
:1013500090E80E008AE80E00C068F04201D19819AA
:1013600008903246012306A903A801F0B9FA03AB9D
:1013700083E807006D10641C002DE3D14FF00103DA
:1013800032466946B8F1000F03A802D001F07EFA98
:1013900001E001F0A5FAC9E90001C9F808200AB086
:1013A000BDE8F0878C2A000010B50446AFF300803A
:1013B0002046BDE81040FEF7F6BE0000004870472A
:1013C0000000002010B5FFF765FF006810BD10B5E4
:1013D0000446FFF75FFF046010BD00002DE9FF4FDA
:1013E0001F464FF03C0987B04FF00042DDE9141072
:1013F00001F10108DDF858A002EA405003900020F6
:1014000005908346054604460490B969461E08982F
:101410008847AAF1010A0290BAF1000F3BDD029859
:101420002E2815D01021FFF76CFA00282EDB4FF084
:10143000010B0599014317D0B9F1000F0BDB4A46A8
:10144000C117FFF72BFF05430C43A9F1040905E081
:10145000012004900BE008B145F001050120059042
:10146000049820B9361D02E0049800B1361FB9690E
:10147000089808F101088847BBF1000FAAF1010A9A
:101480000290C9D00999C1F80080C5E70298702878
:1014900008D0502806D0F96908988847BBF1000F9A
:1014A00014D04FE0002002900120BBF1000F049007
:1014B00009D0B969089808F101088847AAF101091B
:1014C000B9F1000F07DCF969089888476FF001004F
:1014D0000BB0BDE8F08F2B2804D02D280CD14FF095
:1014E000FF300490B969089808F101088847A9F10C
:1014F0000109B9F1000FE6DD411CE4D00A21FFF734
:1015000000FA0028DFDB029908F1010801EB8101F4
:1015100000EB41000290B969089888470A21FFF75B
:10152000F0F9099AA9F10109B9F1000FC2F8008098
:1015300001DD0028E7DAF9690898884704990298DC
:1015400000FB016655EA040004D004F040410900A4
:1015500002D006E0039898E0A40044EA9574AD0038
:10156000B61E04F00041080002D16D196441761ED8
:10157000159810F0240F03D04FF00B095C4803E0DE
:101580004FF028096FF07D008246564507DAAAEB36
:1015900006018944B9F1410F01DD4FF041090120F5
:1015A0000021A9F10102FFF779FE024628400B460F
:1015B0002140084301D0012100E00021501E02918A
:1015C00043F1FF3128402140084301D0012000E0D1
:1015D00000200299834651EA0B014FD000210846B2
:1015E0004FF00000039900F4400039B100EB800097
:1015F0004FF4400100EBD07001EA60008015012833
:1016000002DD4FF0FF3000E013D0401C36D00298CE
:1016100060B3BBF1000F0CD14A4601200021FFF757
:101620003DFE28402140084301D0012000E0002079
:10163000E0B101204A460021FFF730FE0346401981
:101640000A4661412D1A8C4111D3B9F1400F09DDD1
:10165000159810F0240F02D0AAF1340603E0AAF185
:10166000170600E0761C00254FF0004406E05B1EE4
:1016700042F1FF3220EA030521EA0204CAF1010027
:10168000B04206DA1B4903980843019000200090FD
:101690000EE0039AC4F3D321E80A0A43164940EA4C
:1016A00044500A433146CDE90002684601F0DAFAB7
:1016B000159810F0240F0BD01598C00715D1386875
:1016C000DDE90012031D3B600068C0E900120CE078
:1016D00002A8694601F060FA1598C00705D138687C
:1016E000029A011D3960006802604046F0E6000081
:1016F00002FCFFFF0000F07F0000F03F2DE9FF4FEC
:1017000092461D4685B04FF00041DDE9124BDDE900
:1017100014727F1E01EA4B50414940F0FF4940EAF4
:101720000108002122F020004928049102D04E280F
:1017300028D04CE03BA0012607C88DE80700A96926
:101740000698641C88477F1E014606D41DF80600D3
:1017500018B121F0200181420BD0E9690698884731
:10176000032E34D0082E32D06FF0010009B0BDE84E
:10177000F08F761C032E01D0082EE0D1601CCAF831
:101780000000DCE7A9690698641C88477F1E2AD4FC
:1017900020F02000412826D1A9690698641C8847BA
:1017A0007F1E20D420F020004E281CD1A969069865
:1017B000641C88477F1E48F4002849F48009CAF851
:1017C000004001D4282806D0E969069888475FEAD6
:1017D000CB7012D022E0A9690698641C88477F1E4E
:1017E00001D4002803DAE96906988847BCE729286C
:1017F000F1D1641CCAF80040E9E71BF0240F07D0C0
:1018000028680499031D2B600068C0E9001805E0F2
:101810002868021D2A600068C0F800902046A5E7ED
:101820000000F07F494E46494E49545900000000DF
:101830004FF0013C50F8042B51F8043B9A4221D15F
:10184000A2EB0C03934313EACC1317D150F8042BEB
:1018500051F8043B9A4215D1A2EB0C03934313EACF
:10186000CC130BD150F8042B51F8043B9A4209D108
:10187000A2EB0C03934313EACC13DBD04FF0000030
:10188000704700BFD01A01BAB1FA81F101F0180116
:1018900022FA01F0CB40DBB2C0B2C01AC1F1200184
:1018A0002CFA01F3D11A914311EAC311E6D1704722
:1018B00001491820ABBEFEE7260002007047000079
:1018C00040F22440C4F200000088704780B500F068
:1018D00069FA00F039FA80BD82B001908DF80310EA
:1018E0008DF802209DF80300072816DCFFE79DF81D
:1018F000030081000F2000FA01F20199086890436B
:1019000008609DF802009DF80310890000FA01F2BA
:1019100001990868104308601FE09DF8030008283B
:101920001ADBFFE79DF803006FF01F0101EB800257
:101930000F2000FA02F3019A5068984350609DF816
:1019400002009DF8032001EB820100FA01F20199E7
:10195000486810434860FFE7FFE702B070470000A7
:1019600082B001908DF803108DF802209DF80300DD
:10197000072816DCFFE79DF8030081000F2000FA1E
:1019800001F201990868904308609DF802009DF8F3
:101990000310890000FA01F20199086810430860F9
:1019A0001FE09DF8030008281ADBFFE79DF80300FD
:1019B0006FF01F0101EB80020F2000FA02F3019A81
:1019C0005068984350609DF802009DF8032001EB99
:1019D000820100FA01F20199486810434860FFE76C
:1019E000FFE702B07047000080B582B000F030F829
:1019F000019041F20400C4F202000068C0F3022129
:101A000043F69850C0F60000405C01F0F1FF01463B
:101A1000019801F0EFFE02B080BD000080B582B0F9
:101A200000F016F8019041F20400C4F202000068D0
:101A3000C0F3C22143F69850C0F60000405C01F0AC
:101A4000D7FF0146019801F0D5FE02B080BD00002D
:101A500080B500F013F841F20401C4F202010968F4
:101A600001F0F001CA0843F67851C0F60001895A26
:101A7000B0FBF1F001F0D4FF80BD000082B041F274
:101A80000400C4F20200006810F00C0F06D1FFE75A
:101A900041F20020C0F27A00009062E041F20400BE
:101AA000C4F20200006800F00C0004280FD1FFE728
:101AB00041F20000C4F202000068C003002806D50D
:101AC000FFE741F20020C0F27A00009048E041F2C6
:101AD0000400C4F20200006800F00C0008283AD1AB
:101AE000FFE741F20000C4F202000068C0010028D4
:101AF00031D5FFE741F20400C4F202000068C003E0
:101B0000002812D5FFE741F20400C4F20200006889
:101B1000810341F20020C0F27A00002944BF40F660
:101B20000010C0F23D00009005E040F60010C0F249
:101B30003D000090FFE741F20400C4F2020000689B
:101B4000C0F3834143F6A050C0F60000415C00980A
:101B50004843009003E04FF0FF30019004E0FFE7BE
:101B6000FFE700980190FFE7019802B0704700007E
:101B700080B500F001F880BD84B000200390029091
:101B800041F20001C4F20201086840F480300860AC
:101B9000FFE741F20000C4F20200006800F40030E8
:101BA0000290039801300390FFE702990020019012
:101BB00039B9FFE70398B0F5A06018BF0120019084
:101BC000FFE70198C0070028E3D1FFE741F20000DA
:101BD000C4F2020000688003002803D5FFE701205B
:101BE000029002E000200290FFE70298012851D104
:101BF000FFE742F20001C4F20201086840F0100061
:101C00000860086820F007000860086840F00200DB
:101C1000086041F20401C4F2020100910868086002
:101C200008680860086840F480600860086820F46C
:101C30007C100860086840F4E810086041F2000178
:101C4000C4F20201086840F080700860FFE741F2CA
:101C50000000C4F2020000688001002801D4FFE700
:101C6000F5E741F20401C4F20201086820F0030024
:101C70000860086840F002000860FFE741F20400D5
:101C8000C4F20200006800F00C00082801D0FFE751
:101C9000F4E700E0FFE704B07047000080B541F2D0
:101CA0000002C4F20202106840F00100106041F22C
:101CB0000401C4F2020108680023CFF6FF031840B4
:101CC000086010684FF6FF73CFF6F6631840106097
:101CD000106820F480201060086820F4FE0008607E
:101CE00041F20801C4F202014FF41F000860FFF73F
:101CF0003FFF4EF60851CEF200014FF00060086041
:101D000080BD000080B582B00190009100F00AF81B
:101D10000199009A42F60040C4F2010000F024F953
:101D200002B080BD80B541F21801C4F2020108681A
:101D300040F00400086040F60000C4F201000821F1
:101D40000B22FFF7C9FD80BD41F21C01C4F2020164
:101D50000220086040F21841C4F20001088840F2F5
:101D600001121043088040F20841C4F200010888C3
:101D700040F00300088040F22841C4F20001002036
:101D8000088040F22C41C4F200014FF6FF70088039
:101D900040F20041C4F20001088840F001000880D0
:101DA0007047000080B582B041F21800C4F2020012
:101DB00004220192026040F60000C4F2010000908B
:101DC0000621FFF789FD0098019A0721FFF784FD9E
:101DD00002B080BD80B582B040F61000C4F20000B1
:101DE0000088C007002845D0FFE740F61001C4F284
:101DF0000001088820F001000880FFF761FD0190D4
:101E0000019840F26801C2F200010968401A00908E
:101E10000098B0F5004F06DBFFE700984FF6FF7122
:101E2000401A00900BE0009810F5004F06DCFFE729
:101E300000984FF6FF7108440090FFE7FFE7009815
:101E40004FF41671484348F21F51C5F2EB1180FB65
:101E50000101481100EBD17001F0CAFD40F26401AC
:101E6000C2F200010860019840F26801C2F200016C
:101E70000860FFE702B080BD80B586B00590049190
:101E8000002003900290ADF80600059842F600414C
:101E9000C4F2010188420ED1FFE741F21801C4F2F9
:101EA0000201086840F400600860FFF7B7FD01F028
:101EB0007FFD039029E00598B0F1804F10D0FFE737
:101EC000059840F20041C4F20001884208D0FFE7C3
:101ED000059840F60001C4F20001884214D1FFE7E2
:101EE000059800F14040810A012000FA01F241F218
:101EF0001C01C4F20201086810430860FFF774FD7A
:101F000001F056FD0390FFE7FFE703980499B0FB4B
:101F1000F1F001380290FFE70298B0F5803F10D34E
:101F2000FFE7BDF806000130ADF8060003980499FC
:101F3000BDF8062001325143B0FBF1F001380290A8
:101F4000EAE7059900200880059988840298059998
:101F50008885BDF80600059908850599088840F030
:101F60000100088006B080BD80B584B00390029166
:101F7000019203980299FFF77FFF039800F044F85D
:101F80000399088B40F0600008830399088B40F0A8
:101F9000080008830399088840F0800008800399AE
:101FA000088C40F0010008840399B1F8440040F423
:101FB0004060A1F84400019801F032FD00900398C0
:101FC000808D013001F014FD0021C4F2C82101F020
:101FD00011FC0146009801F037FD01F0CDFC03999A
:101FE00088860399888A40F0010088820399B1F8B5
:101FF000440040F40040A1F844000399088840F0F0
:102000000100088004B080BD81B00090009908886C
:1020100020F00100088000990020888401B07047FA
:1020200080B582B041F21C01C4F20201086840F0A0
:102030000400086040F62801C4F2000142F2CF001B
:10204000088040F62C01C4F2000140F2E73008801D
:1020500040F60C01C4F20001088840F0010008803D
:1020600040F60001C4F20001088840F00100088039
:102070001E20019000F008F90198002100F01CF9E1
:1020800002B080BD80B584B040F27001C2F20001A0
:10209000019143F60000C4F20100202200F0BEF8D6
:1020A000019843F6B051C0F6000103AA02ABFEF757
:1020B000A1F802280DD1FFE7039840F26C01C2F2AB
:1020C00000010860029840F26001C2F2000108605D
:1020D000FFE740F26000C2F20000016841F2883080
:1020E000FFF710FE04B080BD80B58AB0099008915A
:1020F0000020079041F21801C4F20201086840F084
:1021000001000860099843F60001C4F20101884209
:102110000ED1FFE741F21801C4F20201086840F451
:1021200080400860FFF77AFC01F042FC07902DE048
:10213000099844F20041C4F2000188420ED1FFE741
:1021400041F21C01C4F20201086840F4003008604A
:10215000FFF74AFC01F02CFC079016E0099844F6C2
:102160000001C4F2000188420ED1FFE741F21C01D8
:10217000C4F20201086840F480200860FFF734FCD4
:1021800001F016FC0790FFE7FFE7FFE7079801F073
:10219000C0F8009001910898000101F0BAF80246D9
:1021A00000980B46019900F0EFFE05910490049809
:1021B000059901F081F802460999088940EA021060
:1021C0000881049802900599039101F075F801F0D7
:1021D000A0F8024602980B46039901F01DFA00226E
:1021E0000023C4F2300301F0E3F801F065F8024681
:1021F00009990889104308810AB080BD81B0009018
:10220000FFE7009800888006002801D4FFE7F8E780
:1022100000988088C0B201B07047000080B584B0DB
:1022200003900291ADF806200020ADF80400FFE70E
:102230000398FFF7E3FF8DF803009DF803000A28D9
:1022400006D1FFE70299BDF804200020885419E068
:10225000BDF80400BDF80610013988420ADAFFE72C
:102260009DF803000299BDF80420531CADF804301A
:10227000885405E00299BDF804200020885401E04C
:10228000FFE7D5E704B080BD81B08DF803009DF96C
:10229000030000280ED4FFE79DF9031001F01F0290
:1022A000012090404A094EF20011CEF2000141F89F
:1022B0002200FFE701B0704782B08DF8070000915F
:1022C0009DF9070000280AD4FFE7009800019DF956
:1022D00007104EF20042CEF2000288540BE0009844
:1022E00000019DF8071001F00F014EF61452CEF2D6
:1022F00000028854FFE702B07047000080B584B048
:10230000FFF7DEFA0390039840F26801C2F2000181
:102310000968401A02900298B0F5004F06DBFFE70B
:1023200002984FF6FF71401A02900BE0029810F5E8
:10233000004F06DCFFE702984FF6FF710844029059
:10234000FFE7FFE702984FF41671484348F21F5128
:10235000C5F2EB1180FB0101481100EBD17001F0D7
:1023600047FB0190039840F26801C2F20001086047
:10237000019804B080BD000080B586B000210591B1
:1023800041F21802C4F20202106840F0040010602A
:1023900040F60000C4F20100019003220292FFF710
:1023A000DFFA0198029A01210391FFF7D9FA039805
:1023B00040F61001C4F20101086040F61401C4F2B5
:1023C000010102200860FFF781FAFFF729FE43F6BA
:1023D0000000C4F201004FF4E131FFF785FE41F245
:1023E00088305021FFF78EFCFFE7FFF787FF04904E
:1023F000FBE7000023F07F4720F07F4C80EA0300DA
:1024000000F00040ACEB070303F57C5303F1FF033E
:102410002DE9804909B44FEA144324EA03484FEAFE
:10242000154B25EA0B4E0FF2042606EB13273E78D8
:1024300003FB0667C7F5000707FB06F64FEAD6461B
:1024400006F102064FEA543707FB066CCCF1005C3C
:102450004FEA1C472CEA074C0CFB06F507FB06F479
:1024600004EB15464FEA961649085FEA320234BF7C
:1024700000204FF000404FEAD13706FB07FC4FEA3F
:102480001C4C0CFB0BF7D21B03FB0CF761EB070199
:102490000CFB0EF7B0EB074072EB17420CFB08F792
:1024A00034BFA2EB0742B2EB074261EB17414FEAA0
:1024B0000C444FEA910706FB07FC4FEA1C4C0CFB4F
:1024C0000BF7B0EBC74072EB573203FB0CF734BF8E
:1024D000A2EBC742B2EBC74261EB57310CFB0EF7E0
:1024E000B0EBC70072EB57720CFB08F734BFA2EBDE
:1024F000C702B2EBC70261EB57714FEA816141EA53
:1025000092114FEA826242EA90124FEA806004EB35
:10251000CC04039F4FEAD13706FB07FC4FEA1C4C63
:102520000CFB0BF7D21B03FB0CF761EB07010CFB59
:102530000EF7B0EB074072EB17420CFB08F734BF05
:10254000A2EB0742B2EB074261EB17414FEA8C5511
:1025500004EB9C244FEA910706FB07FC4FEA1C4C56
:102560000CFB0BF7B0EBC74072EB573203FB0CF7D9
:1025700034BFA2EBC742B2EBC74261EB57310CFB51
:102580000EF7B0EBC70072EB57720CFB08F734BFC5
:10259000A2EBC702B2EBC70261EB57714FEA816150
:1025A00041EA92114FEA826242EA90124FEA806059
:1025B00015EB4C2544F100044FEAD13706FB07FC2C
:1025C0004FEA1C4C0CFB0BF7D21B03FB0CF761EB27
:1025D00007010CFB0EF7B0EB074072EB17420CFB48
:1025E00008F734BFA2EB0742B2EB074261EB174199
:1025F0004FEA813141EA92414FEA823242EA904207
:102600004FEA80304FEA0C7615EB1C1544F10004BC
:1026100048EA03434EEA0B484FF0000EB2EB080CB9
:1026200071EB030724BF624639464EEB0E0E4FF0A6
:10263000000B0018524149414BEB0B0BB2EB080C5D
:1026400071EB03077BF1000B24BF624639464EEB6A
:102650000E0E4FF0000B0018524149414BEB0B0B93
:10266000B2EB080C71EB03077BF1000B24BF624651
:1026700039464EEB0E0E51EA020718BF46F001062E
:1026800016EB0E7655F1000254F1000103D5BDE8BA
:102690008901BDE80088BDE88901BDE80048B61998
:1026A000524141EB0101A3F10103704780807F7E1D
:1026B0007D7C7B7A797877767675747372717170B8
:1026C0006F6E6E6D6C6C6B6A6A696868676666656A
:1026D0006464636362616160605F5F5E5E5D5D5CF8
:1026E0005C5B5B5A5A595958585757565655555569
:1026F0005454535352525251515050504F4F4F4EC9
:102700004E4D4D4D4C4C4C4B4B4B4A4A4A49494916
:102710004848484747474746464645454544444458
:1027200044434343434242424241414110B546EA99
:1027300006464FEA164646EA42564FEAD22242EA97
:1027400041524FEAD121A3F57053A3F1010300F0E8
:102750002FF820F0004000F0004700F1020CBCF51B
:10276000006F01EB0050114640EA070000D210BD97
:10277000BAF1000F0AD01CB503B44FF004004FF0BB
:1027800004014FF000000FBCBDE810404FF0000105
:10279000BBF1010FB9BF04484FF0FF3103480021DE
:1027A00040EA070010BD00BFFFFFEF7F0000F07F91
:1027B0009C46002B30D477002BD04FEA37071CB54E
:1027C00003B44FF010004FF01001BAF1000F06D023
:1027D000BCF1000FDCBF40F0080040F008014FF0F2
:1027E00000000FBCBDE810400BF1010BBBF1010F65
:1027F00008BF5FEA170722BF12F1010211F10101C0
:102800004FF0004143F1000300F0004043EA0000B4
:102810007047F9D35708D0E746EA06464FEA16460E
:1028200013F1400F1FDD13F1200FDFBF16430A46DF
:10283000002120335B42BED0C3F1200746EA0646A2
:102840004FEA164602FA07F746EA070622FA03F2AB
:10285000C3F1200701FA07F742EA070221FA03F160
:102860004FF00003A7E746EA020646EA06464FEAAB
:10287000164646EA0106BCBF46EA0646360C4FF04D
:1028800000034FF000024FF0000194E72DE9804C67
:1028900070B49A46934691E8380007C831EA400C74
:1028A00048BF34EA430C03D5FFF7A4FDFFF780FFD0
:1028B000F0BCBDE8008C2DE9804C70B49A4693467C
:1028C00091E8380007C831EA400C48BF34EA430CAD
:1028D00003D5FFF78FFDFFF729FFF0BCBDE8008CA3
:1028E0002DE9804C70B49A46934691E8380007C8A9
:1028F00010F0804F08BF13F0804F03D100F01AF89A
:10290000FFF756FFF0BCBDE8008C2DE9804C70B499
:102910009A46934691E8380007C810F0804F08BFE8
:1029200013F0804F03D100F005F8FFF7FFFEF0BC75
:10293000BDE8008C20F07F4723F07F4C80EA030045
:1029400000F0004007EB0C03A3F57C53A3F1FE035A
:1029500092F0000F00F0B38095F0000F00F0778048
:102960002DE901494FEA114021EA00484FEA144697
:1029700024EA064700FB06FC08FB06F607FB08F8FE
:1029800018EB06484CEB164C00FB07F718EB074812
:102990004CEB17404FEA124B22EA0B4E4FEA15461A
:1029A00025EA06470BFB06FC0EFB06F607FB0EFEB0
:1029B0001EEB064E4CEB164C0BFB07F71EEB074EBF
:1029C0004CEB174B18EB0B0840F1000018EB0E0B0B
:1029D00058EB000840F100008F1A4FF000014FF053
:1029E00000063CBFC943661B14BFB5EB040C0021B5
:1029F0003CBFC943F61B4FEA174427EA04454FEA98
:102A00001C472CEA074C04FB076205FB07F70CFB8D
:102A100005F616EB074642EB174204FB0CFC16EBDF
:102A20000C4642EB1C421BEB060658EB02024141EE
:102A30004EEA8E0E46EA9E0601D5BDE80189B6191A
:102A4000524141EB0101A3F10103BDE801894FEAC5
:102A5000144524EA05464FEA114721EA074C05FBD5
:102A600007F406FB07F70CFB06F111EB074144EBFB
:102A7000174405FB0CFC11EB0C4144EB1C444FEAE2
:102A8000124722EA074C05FB07F206FB07F70CFB8F
:102A900006F616EB074642EB174205FB0CFC16EB5D
:102AA0000C4642EB1C456A1854F1000148BF7047C0
:102AB000B619524141EB0101A3F10103704795F0B2
:102AC000000F37D04FEA114221EA02464FEA14477D
:102AD00024EA074C02FB07F106FB07F70CFB06F4A0
:102AE00014EB074441EB174102FB0CFC14EB0C44C4
:102AF00041EB1C414FEA154725EA074C02FB07F55D
:102B000006FB07F70CFB06F616EB074645EB1745E9
:102B100002FB0CFC16EB0C4645EB1C42121951F162
:102B2000000148BF7047B619524141EB0101A3F1C2
:102B3000010370474FEA144524EA05464FEA11475E
:102B400021EA074C05FB07F106FB07F70CFB06F231
:102B500012EB074241EB174105FB0CFC12EB0C4258
:102B600051EB1C414FF0000648BF7047921841EBF3
:102B70000101A3F10103704740F2013200204FF040
:102B8000E04101F062B80000024A0020110701F0A4
:102B90005CB8000001FDFFFF10B50446D1E900015B
:102BA00000F002F8206010BDF8B504460D466A46F4
:102BB00000F06AF800987E30009000281EDC0022A9
:102BC00013462046294600F03BFB17D0002140F673
:102BD00008004FF0000006462046294600F0E6F8BF
:102BE000044640F6080006EA00014FF0000034F009
:102BF000004004BF0220FEF7EAFB29E00098FF280E
:102C000028DB002108464FF0000000F440060022B7
:102C100013462046294600F0C9FC8CBF002501253B
:102C20000220FEF7D4FB4FF0FF4446B1002D0CBF4D
:102C30004FF400004FF48000B04218BF084C04214C
:102C400008464FF00000002D04BF84F00040F8BD9E
:102C50002046F8BD20462946BDE8F84000F0A6B859
:102C6000FFFF7F7F10B504460A46D4E900031946EA
:102C700000F036F8C4E9000110BD30380A2801D24E
:102C8000012070470020704710B5144600222260D2
:102C9000114A21F000439342A8BF10BD53EA00023D
:102CA00008BF10BDB3F5801FA8BF226807DA36221F
:102CB00000F0CBFF6FF0350221F000432260DFF817
:102CC0001CC06FF31E510CEB23531A4441F0FF510B
:102CD00041F00051226010BD0000F07F02FCFFFFB8
:102CE0002DE9F04106460C4640F2FF75174635EADD
:102CF00014502BD000221346304600F0A1FA25D004
:102D00003A463046214600F0A0FF06460C4635EA1A
:102D1000145010D000221346304600F091FA15D11D
:102D20000220FEF754FBFFF72FFF0A46214662F30D
:102D30001E01BDE8F0810220FEF749FBFFF71CFFF2
:102D40000A46214662F31E01BDE8F0813046214665
:102D5000BDE8F08110B500290AD00878002807D016
:102D600005487844FEF764FD002801D0002010BD1E
:102D70000248784410BD00008A1000008210000054
:102D800010B500290AD00878002807D005487844F3
:102D9000FEF74EFD002801D0002010BD0248784407
:102DA00010BD00007A1000007210000021F00042F7
:102DB00001F00043A2F16052B2F5801F28BFD2F1AA
:102DC0007F6C0BD95FEA001C43EAC20242EB5070F1
:102DD00018BF704728BF20F001007047B2F5801F70
:102DE000BCBF184670474FEA410C1CF5001F02D2C9
:102DF000084600F0F0BE70B500F084FB00000089CA
:102E0000FFF7F6BF4FF00040A0F5800070470000CC
:102E100010B591EA030F48BF83F0004300F104842A
:102E2000841A71EB030C05D2121943EB0C03001B3F
:102E300061EB0C014FEA1154A4EB135CDFF81CE1C9
:102E40001EEA430F18BF9EEA445F00F0748021EA37
:102E5000045123EA0E0343F48013DCF1200E32D335
:102E600022FA0CFE10EB0E0023FA0CFE41EB0E01D1
:102E7000CCF1200E03FA0EFE10EB0E00CCF1200E6A
:102E800051F10001B1F5801F32D201EB045112FA69
:102E90000EF2BDE8104058BF7047401C38BF5FEAD3
:102EA000420218BF7047002814BF20F0010041F112
:102EB00000014FEA410313F5001F38BF7047A1F12D
:102EC000C04100F06DBB012A43EB0302ACF1200CC2
:102ED000DCF11F0E32BF4FF0000E23FA0CF310EBA3
:102EE000030041EB0451B4EB115FD0D0A1EB0451CE
:102EF00001F58011490801EB04515FEA30000ED35F
:102F000050F1000038BF12FA0EFE08D1BDE81040A3
:102F1000C9E7401C38BF5FEA4202CAD1C3E7BDE837
:102F200010404FEA410313F5001F38BF7047A1F16D
:102F3000C04100F035BB9EEA445F08D011EA5E0F45
:102F4000BDE8104004BF01F0004100207047BDE81B
:102F5000104070B500F0D6FA64FBBE3E0000E0FF02
:102F600002494FF0000000F03EBE00BF0000F87FB5
:102F7000491058BFC1F140415B1058BFC3F14043F5
:102F80008B42EFF3008070472DE9C04130B4DFF889
:102F9000A8C23CEA111418BF3CEA131400F0F080F8
:102FA0001CEA111481EA030544EAD57418BF1CEA2F
:102FB000131500F0CB80A4EB050404F17F7404F535
:102FC00000344FF0004545EAC12145EAC32341EAF8
:102FD000505143EA52534FEAC0204FEAC22299426D
:102FE00008BF904200F0A0804FEA13650FF2481628
:102FF000765D4FEA134506FB05F7C7F1807706FBC0
:1030000007F74FEAD737A7FB03687642A7FB06CE40
:10301000C8F5803838BFA8F1010807FB08E6A6FB11
:10302000028C4FF0000EE6FB03CED8F100086FEAE9
:103030000C0C5CF1000C6FEA0E0E4EF1004EA6FB7C
:103040000C584FF00007E6FB0E87A1FB08C6A0FB5B
:1030500007CE16EB0E064FF0000545F10005E1FB2B
:10306000076515F1E04E7EBFA4F580345FEA4606A1
:103070006D4116F1800745F100054FEA172747EA31
:1030800005674FEA15254FEA0666A6F1DE46B6F15A
:10309000805F20D9384605EBC47124F0010C01EBA8
:1030A0000C11BCF1FE6F02D8F0BCBDE800812442D7
:1030B0005CBF01F5801E9EEAC47F02D4F0BCBDE86F
:1030C0000081244200F13980A1F1C041F0BCBDE88B
:1030D000004100F065BA4FEAD02040EA41504FEA83
:1030E000D1214FEAD22242EA43524FEAD323A7FB2F
:1030F000028607FB036605FB02661EEA0E0F58BF39
:10310000A6EB0056B6EB00564FEA520E4EEAC37ECF
:1031100018EB0E0E56EB530EBCD518EB02085E41B1
:103120007F1C55F10005B5E74FF480154FF00007FF
:103130004FF000064FF00008ACE701F1C04101F08C
:1031400000414FF00000F0BCBDE800810CEA13150F
:1031500011EA0C1F00D00CE013EA0C1F00F02580D0
:103160004FF0000081EA030101F00041F0BCBDE82E
:103170000081F0BCBDE8004181EA030100F010BA13
:10318000F0BCBDE8004170B500F0BCF9097EFC3E22
:1031900000F007B84FF0000081EA030101F00041A0
:1031A000704781EA030100F0FBB9F0BCBDE80041C3
:1031B00022494FF000007047FFFDFBF9F7F5F4F2EC
:1031C000F0EEEDEBE9E8E6E4E3E1E0DEDDDBDAD8C2
:1031D000D7D5D4D3D1D0CFCDCCCBCAC8C7C6C5C420
:1031E000C2C1C0BFBEBDBCBBBAB9B8B7B6B5B4B337
:1031F000B2B1B0AFAEADACABAAA9A8A8A7A6A5A422
:10320000A3A3A2A1A09F9F9E9D9C9C9B9A999998E5
:103210009797969595949393929191908F8F8E8E88
:103220008D8C8C8B8B8A8989888887878685858415
:1032300084838382828181800000FF070000F87F01
:1032400051EA030C17D41CF5801F58BFBCF5801F32
:1032500000F10680994218BF704708BF904270473E
:1032600007D711F5801F58BF13F5801F19D4994255
:103270007047894270471CF5801F08D5BCF5801F38
:10328000F7D58B4218BF704708BF824270474FF492
:10329000001C1CEB410F38BF1CEB430F01D28B42CB
:1032A000704770B500F02EF9922449004FF000519C
:1032B0004FF08053FFF75CBE4FEA1153A3F58063D4
:1032C000D3F11E03A8BFD3F1200C08DB4FF000425E
:1032D00042EAC12252EA505232FA03F070470942E0
:1032E0000BD4102BC4BF0020704703F5787CBCF1D1
:1032F000FF3F05D04FF0FF3070474FF000007047A0
:1033000070B500F0FFF800BF49922480002070479C
:10331000F0E7B0FA80F310FA03F10AD0C3F11D030D
:1033200003F580634FEA03524FEA415002EBD1218B
:1033300070474FF00000704751EA030C17D41CF59A
:10334000801F58BFBCF5801F00F10680994218BF4E
:10335000704708BF9042704707D711F5801F58BFCC
:1033600013F5801F19D499427047894270471CF5A4
:10337000801F08D5BCF5801FF7D58B4218BF70475A
:1033800008BF824270474FF4001C1CEB410F38BF4E
:103390001CEB430F01D28B42704770B500F0B2F8BE
:1033A000922449004FF000514FF08053FFF7E0BDE9
:1033B00070B5DFF848C11CEA111E1EBF1CEA1315C8
:1033C0009EEA0C0F95EA0C0F00F06F8081EA03046F
:1033D0004EEAD47EAE4421EA4C1123EA4C1341F468
:1033E000801143F48013AEF17F7EA1FB024CA0FB61
:1033F0000365361955EB0C05A1FB034C4CF100039A
:10340000A0FB021C16EB0C06654153F100030942B8
:1034100018BF46F0010613F4007F0BD14FEA0331C9
:103420004FEA053041EA155140EA165034036FF077
:1034300003020AE04FEAC3214FEAC52041EA555191
:1034400040EA5650F4026FF0020202EB2E4201EB0A
:10345000025585EACE710AD05FEA440C18BF24F009
:10346000004450F1000041F1000120EAD47040F224
:10347000FE7C624500D270BDA84214BF4FF080446C
:103480004FF04044002E08BF0024BEF1806FA8BF5B
:10349000A1F1C041BDE8704080F2828001F1C041DD
:1034A00001F000414FF0000070470CEA13159EEA4E
:1034B0000C0F18BF95EA0C0F06D081EA030E4FF0EF
:1034C00000000EF0004170BD00F01CF88900013EC4
:1034D00000F007B800F009B84FEA430C5FEA5C5C03
:1034E00008D081EA030100F05BB84FEA410C5FEAC3
:1034F0005C5CF6D102494FF0000070470000FF0706
:103500000000F87F0EF1020E2EF0030E5EF8046B41
:10351000364205D4012A43EB030515F5001F12D8E6
:10352000012841EB010C1CF5001F0CD80ED14FEA0D
:10353000D17C0CEB4C0C0CF1020C15F5001F08BFF4
:103540004CEBD37C04E04FF0080C01E04FEAD37C55
:103550000CEB4C0526FA05F606F00706B6F1040C4E
:1035600006D20EEB860CBDE870404CF0010C6047B3
:10357000DFE80CF0090B02024FF00041A1F5002139
:103580004FF0000070BD19461046012851EB0104B0
:1035900018BFD4F5001484BF002001F0004170BDB5
:1035A0000808A0F500114FEA3101704753EA010CF9
:1035B00017D41CF5801F58BFBCF5801F00F1068092
:1035C0008B4218BF704708BF8242704707D713F578
:1035D000801F58BF11F5801F19D48B4270479B4242
:1035E00070471CF5801F08D5BCF5801FF7D59942A0
:1035F00018BF704708BF904270474FF4001C1CEB87
:10360000430F38BF1CEB410F01D2994270470FB4F2
:103610000CBC03BCFFF7C1BE10B591EA030F48BF55
:1036200083F000433FF5FCAB841A71EB030C07D227
:103630008CF0004C121943EB0C03001B61EB0C01E6
:103640004FEA1154A4EB135CDFF8A4E11EEA430F28
:1036500018BF9EEA445F00F0B48021EA045123EAD7
:103660006E035242C3EB6E0338BF5B1EDCF1200ECB
:1036700025D322FA0CFE10EB0E0043FA0CFE41EBB0
:103680000E01CCF1200E03FA0EFE10EB0E00CCF171
:10369000200E51F1000129D401EB045112FA0EF26F
:1036A000BDE8104058BF7047401C1CBFB2F1004F2E
:1036B000704700280CBF491C20F00100704712EB36
:1036C000020E43EB030218BF4FF0010E4EEA420216
:1036D000ACF1200CDCF11E0E56D943FA0CFE10EBB7
:1036E0000E00CCF11E0E51F1FF31D5D50EF1010EB9
:1036F00012FA0EFE404141EB010101EB445C5FEA2E
:103700005C5C10D901EB045110EBDE7038BFBEF1E8
:10371000004FBDE8104018BF704700280CBF491C7F
:1037200020F00100704734D24FEAD42C24F4006416
:1037300011F500111BD0B1FA81F20B3AA41AA41EA4
:10374000D2F12003914030FA03F31943904001EB8A
:10375000CC7101EB0451002CBDE81040A8BF7047AC
:1037600001F1C04101F000414FF000007047B0FA94
:1037700080F310FA03F102D1BDE810407047E41A5B
:10378000173C4805C90AE2E701EB0451BDE81040C7
:10379000704749104FEA300001EB0451BDE810407A
:1037A00002E04FF0000170474A0008BF0042F8D025
:1037B000B2F5001F28BF704701F000414FF0000034
:1037C00070479EEA445F07D011EA5E0FBDE81040E3
:1037D00004BF002100207047BDE8104070B5FFF71E
:1037E00091FE00BF40DFF63E104683F00041704777
:1037F0000000E0FF4FF47F0C1CEAD0121EBF1CEA51
:10380000D11392EA0C0F93EA0C0F00F0858090EA36
:10381000010F48BF42F4807240F4000C41F40000F4
:103820002CF07F4120F07F4000B5A2EB03028142E3
:103830000FF2081CACEB504E9EF800E0C0F1000007
:103840004FEA4E0E00FB0EFC38BF49004FEA2C1C1D
:103850000CFB0EF34FEACE1E0EEB635E4FEA112C0B
:103860000EFB0CFC4FEAC1214FEA1C5300FB031175
:1038700002F5FA024FEA112C0EFB0CFC4FEA013163
:103880004FEADC4C00FB0C1142EB2242C14228BF44
:1038900009184CEB03335DF804EB10EB410143EBEB
:1038A000C250B2F57C0F38BF704729D512F0F00F27
:1038B0001CBF00F1C04000F00040704700818283CF
:1038C0008485868788898B8C8D8E8F91929395962F
:1038D00097999A9C9D9FA0A2A3A5A7A8AAACAEB0B9
:1038E000B2B3B5B7B9BCBEC0C2C5C7C9CCCED1D4BE
:1038F000D7D9DCDFE2E6E9ECF0F3F7FAFE000000EE
:103900004FEA400C0CF1807CBCF17E4F28BF704721
:10391000B0F1C04000F05FB90CEAD11390EA010F9A
:1039200048BF42F48072624538BF634507D213F442
:103930007F0F16D080EA010000F00040704710B5FC
:1039400000F003F9097EFC3E00F005B880EA0100B2
:1039500000F00040704780EA010000F0004000F0F5
:103960003AB912F47F0F04BF0248704780EA0100A1
:1039700000F031B90000C07F41000B0ED3F19E0270
:1039800008D950F400034FEA032323FA02F048BF9A
:103990004042704710B500F0D8F800BF499224802B
:1039A000002070476FF0004282EA2000704700005C
:1039B000C10DD1F19E0206DB4FEA002343F0004324
:1039C00023FA02F07047004207D54FEA4001B1F1F7
:1039D000FE4F02D24FF00000704710B500F0B5F86E
:1039E00049922480002070476FEA20007047000051
:1039F00010F0004148BF4042B0FA80F310FA03F2E1
:103A0000C3F19D030BD051EAC35101EB12205306C1
:103A100038BF704700F1010008BF20F00100704777
:103A2000B0FA80F310FA03F2C3F19D030AD0D9056E
:103A300001EB1220530638BF704700F1010008BFA8
:103A400020F00100704700004FF47F0C1CEAD012F8
:103A50001EBF1CEAD11392EA0C0F93EA0C0F00F080
:103A6000478090EA010F48BF42F480724FF0004C4B
:103A70004CEA00204CEA012102EB0302A0FB0113F7
:103A8000A2F50002002918BF43F001035B0028BF24
:103A90004FEA330342EB22425FEA132C4CEBC25055
:103AA0002EBFBCEB436FB2F57C0F70474FEA036C3F
:103AB000BCF1004F08BF20F00100B2F57C0F38BF09
:103AC00070470BD582F0FF0212F5803FC8BF7047E8
:103AD00000F1C040D8BF00F00040704700F5000C76
:103AE0005FEA4C0C48BF7047B0F1C04000F073B8BB
:103AF0000CEAD11390EA010F48BF42F4807262458C
:103B000038BF634504D280EA010000F000407047EE
:103B100010B500F01AF800BF8900013E00F007B8A8
:103B200000F009B85FEA410C5FEA1C6C08D080EA3B
:103B3000010000F050B85FEA400C5FEA1C6CF6D15F
:103B40004FF00040A0F5800070470EF1020E2EF0FD
:103B5000030E5EF8044B244204D44FEA4102B2F152
:103B60007F4F11D84FEA4003B3F17F4F0CD80ED1ED
:103B70004FEAD07C0CEB4C0C0CF1020CB2F17F4FF5
:103B800008BF4CEBD17C04E04FF0080C01E04FEA99
:103B9000D17C0CEB4C0324FA03F404F00704B4F1D9
:103BA000040C06D20EEB840CBDE810404CF0010C66
:103BB0006047DFE80CF0070802024FF00040A0F574
:103BC000800010BD0846420018BFD2F1807288BF45
:103BD00000F0004010BDFF2141EAD050C005704701
:103BE0004FF0000070470CF00F03092B08BF0820AE
:103BF00000F05F800A2B0BD0082B18BF704708BF5E
:103C00001CF0400F0AD04FF000004FF00001704749
:103C10001CF0400F18BF4FF0004070471CF0100F11
:103C200008D000F07F4220F0704342EAD3014FEA0F
:103C30004370704700F0604021F07F4242EA00028A
:103C400001F07F4040EA727070474FF0FF0C4CF477
:103C5000E06C1CEA11531CBF9CEA030C9445C2BFE4
:103C6000DA4201EB02517047002B0DD0BCF1000F7E
:103C70000FD001F00041002AA4BF41F0E04141F023
:103C80007F614FF00000704701F000414FF00000ED
:103C9000704750EA01334FF09B0C18BF4CF0806C1A
:103CA0007FF45EA97047FDF71BB9FDF797BBFDF7E1
:103CB00025BD1CF4801F11D01CF4E02F03D06FEA47
:103CC000CC31490070474FF04050EFF3008222F0B2
:103CD000704242EA000282F3008870474FF0000011
:103CE0007047000002400000000000A0000000003B
:103CF00005400000000000C8000000000C4000006B
:103D00000000409C00000000194000000020BCBEE4
:103D10000000000034400000BFC91B8E00000004FA
:103D2000B5400000504BCFD06607E2CF0100000045
:103D30006C4100003E8251AADFEEA7340100000072
:103D4000D9420000DCB5A0E23A301F97FFFFFFFF29
:103D5000B4450000FD25A0C8E9A3C14FFFFFFFFF48
:103D6000FF3F00000000008000000000FF3F000057
:103D700000000080000000000100010001000100BF
:103D80000100010001000100020004000800100011
:103D9000400080000001000201010101020408103E
:103DA00002030405060708090A0B0C0D0E0F10107C
:103DB0003C53706565643A25643E2C3C44757479C7
:103DC0004379636C653A25643E000000183F0008A3
:103DD00000000020900600005401000800000000D0
:103DE0000000F07FFFFFFFFFFFFFEF7F1C000000E0
:103DF00043000000F8FFFFFF0C0000000E00000071
:103E00000F0000002E000000100100004300000021
:103E1000F8FFFFFF004040404040404040404141EB
:103E2000414141404040404040404040404040408F
:103E30004040404040050202020202020202020229
:103E40000202020202202020202020202020200226
:103E500002020202020290909090909010101010B6
:103E60001010101010101010101010101010101052
:103E700002020202020288888888888808080808E6
:103E800008080808080808080808080808080808B2
:103E900002020202400000000000000000000000DA
:103EA0000000000000000000000000000000000012
:103EB0000000000000000000000000000000000002
:103EC00000000000000000000000000000000000F2
:103ED00000000000000000000000000000000000E2
:103EE00000000000000000000000000000000000D2
:103EF00000000000000000000000000000000000C2
:103F000000000000000000000000000000000000B1
:083F10000000000000000000A9
:04000005080001B539
:00000001FF
